{
  "contractName": "Voting",
  "abi": [
    {
      "constant": true,
      "inputs": [],
      "name": "charity",
      "outputs": [
        {
          "name": "beneficiary",
          "type": "address"
        },
        {
          "name": "beneficiaryName",
          "type": "string"
        },
        {
          "name": "votes",
          "type": "uint256"
        },
        {
          "name": "duration",
          "type": "uint256"
        }
      ],
      "payable": false,
      "stateMutability": "view",
      "type": "function"
    },
    {
      "inputs": [
        {
          "name": "_address",
          "type": "address"
        },
        {
          "name": "_name",
          "type": "string"
        },
        {
          "name": "_initialAmt",
          "type": "uint256"
        },
        {
          "name": "_duration",
          "type": "uint256"
        }
      ],
      "payable": false,
      "stateMutability": "nonpayable",
      "type": "constructor"
    },
    {
      "constant": true,
      "inputs": [],
      "name": "getVotes",
      "outputs": [
        {
          "name": "",
          "type": "uint256"
        }
      ],
      "payable": false,
      "stateMutability": "view",
      "type": "function"
    },
    {
      "constant": true,
      "inputs": [],
      "name": "getCharityName",
      "outputs": [
        {
          "name": "",
          "type": "string"
        }
      ],
      "payable": false,
      "stateMutability": "view",
      "type": "function"
    },
    {
      "constant": false,
      "inputs": [
        {
          "name": "_amount",
          "type": "uint256"
        }
      ],
      "name": "vote",
      "outputs": [],
      "payable": false,
      "stateMutability": "nonpayable",
      "type": "function"
    },
    {
      "constant": false,
      "inputs": [],
      "name": "getRemainingDuration",
      "outputs": [
        {
          "name": "",
          "type": "uint256"
        }
      ],
      "payable": false,
      "stateMutability": "nonpayable",
      "type": "function"
    }
  ],
  "bytecode": "0x60806040524260005534801561001457600080fd5b506040516106443803806106448339810180604052810190808051906020019092919080518201929190602001805190602001909291908051906020019092919050505060008211151561006757600080fd5b6080604051908101604052808573ffffffffffffffffffffffffffffffffffffffff16815260200184815260200183815260200182815250600160008201518160000160006101000a81548173ffffffffffffffffffffffffffffffffffffffff021916908373ffffffffffffffffffffffffffffffffffffffff1602179055506020820151816001019080519060200190610104929190610125565b506040820151816002015560608201518160030155905050505050506101ca565b828054600181600116156101000203166002900490600052602060002090601f016020900481019282601f1061016657805160ff1916838001178555610194565b82800160010185558215610194579182015b82811115610193578251825591602001919060010190610178565b5b5090506101a191906101a5565b5090565b6101c791905b808211156101c35760008160009055506001016101ab565b5090565b90565b61046b806101d96000396000f30060806040526004361061006d576000357c0100000000000000000000000000000000000000000000000000000000900463ffffffff1680630121b93f146100725780630dc960151461009f57806310f0d44f146100ca5780632799a0231461015a578063934aa02314610185575b600080fd5b34801561007e57600080fd5b5061009d60048036038101908080359060200190929190505050610256565b005b3480156100ab57600080fd5b506100b46102ad565b6040518082815260200191505060405180910390f35b3480156100d657600080fd5b506100df6102ba565b6040518080602001828103825283818151815260200191508051906020019080838360005b8381101561011f578082015181840152602081019050610104565b50505050905090810190601f16801561014c5780820380516001836020036101000a031916815260200191505b509250505060405180910390f35b34801561016657600080fd5b5061016f61035e565b6040518082815260200191505060405180910390f35b34801561019157600080fd5b5061019a610369565b604051808573ffffffffffffffffffffffffffffffffffffffff1673ffffffffffffffffffffffffffffffffffffffff16815260200180602001848152602001838152602001828103825285818151815260200191508051906020019080838360005b838110156102185780820151818401526020810190506101fd565b50505050905090810190601f1680156102455780820380516001836020036101000a031916815260200191505b509550505050505060405180910390f35b60008111151561026557600080fd5b60016002015481600160020154011015151561028057600080fd5b600160030154600054420311151561029757600080fd5b8060016002016000828254019250508190555050565b6000600160020154905090565b6060600180018054600181600116156101000203166002900480601f0160208091040260200160405190810160405280929190818152602001828054600181600116156101000203166002900480156103545780601f1061032957610100808354040283529160200191610354565b820191906000526020600020905b81548152906001019060200180831161033757829003601f168201915b5050505050905090565b600080544203905090565b60018060000160009054906101000a900473ffffffffffffffffffffffffffffffffffffffff1690806001018054600181600116156101000203166002900480601f0160208091040260200160405190810160405280929190818152602001828054600181600116156101000203166002900480156104295780601f106103fe57610100808354040283529160200191610429565b820191906000526020600020905b81548152906001019060200180831161040c57829003601f168201915b50505050509080600201549080600301549050845600a165627a7a7230582019c475a1ce63e455cd3c2ef3869b592cdf511c042176c1cac7214a9741e9f5840029",
  "source": "pragma solidity ^0.4.18;\n\n\ncontract CrayonToken {\n    address owner;\n    mapping (address => uint256) public balanceOf;\n    mapping (address => Voting) public charities;\n    \n    event FundTransfer(address backer, uint amount, bool isContribution);\n    event NewCharity(address creator, uint duration, string charityName,uint startTime);\n    \n    modifier onlyOwner() {\n        require(msg.sender == owner);\n        _;\n           \n    }\n    \n    modifier positiveVal(){\n        require((balanceOf[msg.sender] + 2*(msg.value/(10**15))) >= balanceOf[msg.sender]);\n        _;\n    } \n    // need this to make sure that there is no int overflow on sending the tokens to a charity \n    // modifier positiveAmount(uint256 _amount) {\n    //     require\n    // }\n\n    constructor() public {\n        owner = msg.sender;\n        \n    }\n    \n    //When buying tokens each buyer will get 2 tokens for every finney they spend.\n    //The contract wil not allow for mixed amounts to keep the math simple so any change will be returned \n    //(so if there is a change sent after the gas cost will)\n    function buyToken() public payable positiveVal{\n        uint256 amount = msg.value/(10**15);\n        balanceOf[msg.sender]+=2*amount;\n        uint256 decimalPart = msg.value%(10**15);\n        emit FundTransfer(msg.sender, amount, true);\n            // tarnsfer the decimal points back to user\n        msg.sender.transfer(decimalPart);\n    }\n    \n    function getMybalance() public view returns (uint256) {\n        return balanceOf[msg.sender];\n    }\n    \n    function getbalance(address doner) public view returns (uint256) {\n        return balanceOf[doner];\n    }\n\n    function transfer(address to, uint256 value) public {\n        require(balanceOf[msg.sender] >= value);\n        require((balanceOf[to] + value) >= balanceOf[to]);\n        balanceOf[msg.sender] -= value; \n        balanceOf[to] += value;\n    }\n\n    //will take in an amount in ethers or finney (to be converted TO finney integer on the front end)\n    function withdraw(uint256 value) public {\n        require(balanceOf[msg.sender] >= 2*value);\n        uint256 amountToSend = 2*value*10**15;\n        if (msg.sender.send(amountToSend)){\n            balanceOf[msg.sender] -= 2*value;\n           emit FundTransfer(msg.sender, value, false);\n        }\n        \n    }\n\n    function kill() private onlyOwner { \n        selfdestruct(owner); \n    } \n    \n    //---------------------------------------\n    //----- Voting and Charity creation -----\n    //---------------------------------------\n    \n    //the durationshould be the amount of time that the contract stays alive (in seconds)\n    function createcharity(string _name, uint256 _initialAmt,uint _duration) public{\n        require(_initialAmt>0);\n        Voting charity = new Voting(msg.sender,_name,_initialAmt,_duration);\n        charities[msg.sender] = charity;\n        NewCharity(msg.sender, _duration, _name, block.timestamp);\n        \n    }\n    \n    function supportCharity(address charityAddr, uint256 _amount) public{\n        require(balanceOf[charityAddr]+_amount>balanceOf[charityAddr]);\n        require(balanceOf[msg.sender] >= _amount);\n        charities[charityAddr].vote(_amount);\n        balanceOf[charityAddr]+=_amount;\n        balanceOf[msg.sender]-=_amount;\n    }\n    \n    function checkFundraiserBalance(address charityAddr) public returns(uint256){\n        return charities[charityAddr].getVotes();\n    }\n    \n    function checkCharityName(address charityAddr) public returns(string){\n        return charities[charityAddr].getCharityName();\n    }\n    //gets the time in second so need to convert to days/hours/minutes\n    function getTimeLeftInFundraiser(address charityAddr) public returns(uint){\n        return charities[charityAddr].getRemainingDuration();\n    }\n    \n    \n    \n    \n}\n\n\ncontract Voting {\n\n    struct Candidate {\n        address beneficiary;\n        string beneficiaryName;\n        uint256 votes;\n        uint duration;\n    }\n    uint startTime =block.timestamp;\n    Candidate public charity;\n\n    constructor(address _address, string _name, uint256 _initialAmt,uint _duration) public{\n        require ( _initialAmt > 0);\n        charity = Candidate(_address, _name, _initialAmt, _duration);\n    }\n    \n    function getVotes () public view returns (uint256) {\n        return charity.votes;\n    }\n    \n    function getCharityName () public view returns (string) {\n        return charity.beneficiaryName;\n    }\n    \n    function vote(uint256 _amount) public {\n        require(_amount > 0);\n        require(charity.votes + _amount >= charity.votes );\n        require(block.timestamp-startTime> charity.duration);\n        charity.votes += _amount;\n    }\n    function getRemainingDuration() returns (uint){\n        return block.timestamp-startTime;\n    }\n    \n}",
  "sourcePath": "C:\\Users\\Patrick\\Documents\\BlockChainAcadamy\\PracticalProject2\\PerfectlyGeneratedCrayons\\contracts\\CrayonToken.sol",
  "compiler": {
    "name": "solc",
    "version": "0.4.24+commit.e67f0147.Emscripten.clang"
  },
  "schemaVersion": "2.0.1",
  "updatedAt": "2018-06-29T02:05:35.777Z"
}